{
  "_format": "hh-sol-artifact-1",
  "contractName": "NFT",
  "sourceName": "contracts/NFT.sol",
  "abi": [
    {
      "inputs": [
        {
          "internalType": "string",
          "name": "_name",
          "type": "string"
        },
        {
          "internalType": "string",
          "name": "_symbol",
          "type": "string"
        },
        {
          "internalType": "string",
          "name": "_initBaseURI",
          "type": "string"
        }
      ],
      "stateMutability": "nonpayable",
      "type": "constructor"
    },
    {
      "anonymous": false,
      "inputs": [
        {
          "indexed": true,
          "internalType": "address",
          "name": "owner",
          "type": "address"
        },
        {
          "indexed": true,
          "internalType": "address",
          "name": "approved",
          "type": "address"
        },
        {
          "indexed": true,
          "internalType": "uint256",
          "name": "tokenId",
          "type": "uint256"
        }
      ],
      "name": "Approval",
      "type": "event"
    },
    {
      "anonymous": false,
      "inputs": [
        {
          "indexed": true,
          "internalType": "address",
          "name": "owner",
          "type": "address"
        },
        {
          "indexed": true,
          "internalType": "address",
          "name": "operator",
          "type": "address"
        },
        {
          "indexed": false,
          "internalType": "bool",
          "name": "approved",
          "type": "bool"
        }
      ],
      "name": "ApprovalForAll",
      "type": "event"
    },
    {
      "anonymous": false,
      "inputs": [
        {
          "indexed": true,
          "internalType": "address",
          "name": "previousOwner",
          "type": "address"
        },
        {
          "indexed": true,
          "internalType": "address",
          "name": "newOwner",
          "type": "address"
        }
      ],
      "name": "OwnershipTransferred",
      "type": "event"
    },
    {
      "anonymous": false,
      "inputs": [
        {
          "indexed": true,
          "internalType": "address",
          "name": "from",
          "type": "address"
        },
        {
          "indexed": true,
          "internalType": "address",
          "name": "to",
          "type": "address"
        },
        {
          "indexed": true,
          "internalType": "uint256",
          "name": "tokenId",
          "type": "uint256"
        }
      ],
      "name": "Transfer",
      "type": "event"
    },
    {
      "inputs": [
        {
          "internalType": "address",
          "name": "to",
          "type": "address"
        },
        {
          "internalType": "uint256",
          "name": "tokenId",
          "type": "uint256"
        }
      ],
      "name": "approve",
      "outputs": [],
      "stateMutability": "nonpayable",
      "type": "function"
    },
    {
      "inputs": [
        {
          "internalType": "address",
          "name": "owner",
          "type": "address"
        }
      ],
      "name": "balanceOf",
      "outputs": [
        {
          "internalType": "uint256",
          "name": "",
          "type": "uint256"
        }
      ],
      "stateMutability": "view",
      "type": "function"
    },
    {
      "inputs": [],
      "name": "cost",
      "outputs": [
        {
          "internalType": "uint256",
          "name": "",
          "type": "uint256"
        }
      ],
      "stateMutability": "view",
      "type": "function"
    },
    {
      "inputs": [
        {
          "internalType": "uint256",
          "name": "tokenId",
          "type": "uint256"
        }
      ],
      "name": "getApproved",
      "outputs": [
        {
          "internalType": "address",
          "name": "",
          "type": "address"
        }
      ],
      "stateMutability": "view",
      "type": "function"
    },
    {
      "inputs": [],
      "name": "getCost",
      "outputs": [
        {
          "internalType": "uint256",
          "name": "",
          "type": "uint256"
        }
      ],
      "stateMutability": "view",
      "type": "function"
    },
    {
      "inputs": [],
      "name": "hiddenMetadataUri",
      "outputs": [
        {
          "internalType": "string",
          "name": "",
          "type": "string"
        }
      ],
      "stateMutability": "view",
      "type": "function"
    },
    {
      "inputs": [
        {
          "internalType": "address",
          "name": "owner",
          "type": "address"
        },
        {
          "internalType": "address",
          "name": "operator",
          "type": "address"
        }
      ],
      "name": "isApprovedForAll",
      "outputs": [
        {
          "internalType": "bool",
          "name": "",
          "type": "bool"
        }
      ],
      "stateMutability": "view",
      "type": "function"
    },
    {
      "inputs": [],
      "name": "maxMintAmountPerTx",
      "outputs": [
        {
          "internalType": "uint256",
          "name": "",
          "type": "uint256"
        }
      ],
      "stateMutability": "view",
      "type": "function"
    },
    {
      "inputs": [],
      "name": "maxSupply",
      "outputs": [
        {
          "internalType": "uint256",
          "name": "",
          "type": "uint256"
        }
      ],
      "stateMutability": "view",
      "type": "function"
    },
    {
      "inputs": [
        {
          "internalType": "uint256",
          "name": "_mintAmount",
          "type": "uint256"
        }
      ],
      "name": "mint",
      "outputs": [],
      "stateMutability": "payable",
      "type": "function"
    },
    {
      "inputs": [
        {
          "internalType": "address",
          "name": "_receiver",
          "type": "address"
        },
        {
          "internalType": "uint256",
          "name": "_mintAmount",
          "type": "uint256"
        }
      ],
      "name": "mintForAddress",
      "outputs": [],
      "stateMutability": "nonpayable",
      "type": "function"
    },
    {
      "inputs": [],
      "name": "name",
      "outputs": [
        {
          "internalType": "string",
          "name": "",
          "type": "string"
        }
      ],
      "stateMutability": "view",
      "type": "function"
    },
    {
      "inputs": [],
      "name": "owner",
      "outputs": [
        {
          "internalType": "address",
          "name": "",
          "type": "address"
        }
      ],
      "stateMutability": "view",
      "type": "function"
    },
    {
      "inputs": [
        {
          "internalType": "uint256",
          "name": "tokenId",
          "type": "uint256"
        }
      ],
      "name": "ownerOf",
      "outputs": [
        {
          "internalType": "address",
          "name": "",
          "type": "address"
        }
      ],
      "stateMutability": "view",
      "type": "function"
    },
    {
      "inputs": [],
      "name": "paused",
      "outputs": [
        {
          "internalType": "bool",
          "name": "",
          "type": "bool"
        }
      ],
      "stateMutability": "view",
      "type": "function"
    },
    {
      "inputs": [],
      "name": "renounceOwnership",
      "outputs": [],
      "stateMutability": "nonpayable",
      "type": "function"
    },
    {
      "inputs": [],
      "name": "revealed",
      "outputs": [
        {
          "internalType": "bool",
          "name": "",
          "type": "bool"
        }
      ],
      "stateMutability": "view",
      "type": "function"
    },
    {
      "inputs": [
        {
          "internalType": "address",
          "name": "from",
          "type": "address"
        },
        {
          "internalType": "address",
          "name": "to",
          "type": "address"
        },
        {
          "internalType": "uint256",
          "name": "tokenId",
          "type": "uint256"
        }
      ],
      "name": "safeTransferFrom",
      "outputs": [],
      "stateMutability": "nonpayable",
      "type": "function"
    },
    {
      "inputs": [
        {
          "internalType": "address",
          "name": "from",
          "type": "address"
        },
        {
          "internalType": "address",
          "name": "to",
          "type": "address"
        },
        {
          "internalType": "uint256",
          "name": "tokenId",
          "type": "uint256"
        },
        {
          "internalType": "bytes",
          "name": "_data",
          "type": "bytes"
        }
      ],
      "name": "safeTransferFrom",
      "outputs": [],
      "stateMutability": "nonpayable",
      "type": "function"
    },
    {
      "inputs": [
        {
          "internalType": "address",
          "name": "operator",
          "type": "address"
        },
        {
          "internalType": "bool",
          "name": "approved",
          "type": "bool"
        }
      ],
      "name": "setApprovalForAll",
      "outputs": [],
      "stateMutability": "nonpayable",
      "type": "function"
    },
    {
      "inputs": [
        {
          "internalType": "uint256",
          "name": "_cost",
          "type": "uint256"
        }
      ],
      "name": "setCost",
      "outputs": [],
      "stateMutability": "nonpayable",
      "type": "function"
    },
    {
      "inputs": [
        {
          "internalType": "string",
          "name": "_hiddenMetadataUri",
          "type": "string"
        }
      ],
      "name": "setHiddenMetadataUri",
      "outputs": [],
      "stateMutability": "nonpayable",
      "type": "function"
    },
    {
      "inputs": [
        {
          "internalType": "uint256",
          "name": "_maxMintAmountPerTx",
          "type": "uint256"
        }
      ],
      "name": "setMaxMintAmountPerTx",
      "outputs": [],
      "stateMutability": "nonpayable",
      "type": "function"
    },
    {
      "inputs": [
        {
          "internalType": "bool",
          "name": "_state",
          "type": "bool"
        }
      ],
      "name": "setPaused",
      "outputs": [],
      "stateMutability": "nonpayable",
      "type": "function"
    },
    {
      "inputs": [
        {
          "internalType": "bool",
          "name": "_state",
          "type": "bool"
        }
      ],
      "name": "setRevealed",
      "outputs": [],
      "stateMutability": "nonpayable",
      "type": "function"
    },
    {
      "inputs": [
        {
          "internalType": "string",
          "name": "_uriPrefix",
          "type": "string"
        }
      ],
      "name": "setUriPrefix",
      "outputs": [],
      "stateMutability": "nonpayable",
      "type": "function"
    },
    {
      "inputs": [
        {
          "internalType": "string",
          "name": "_uriSuffix",
          "type": "string"
        }
      ],
      "name": "setUriSuffix",
      "outputs": [],
      "stateMutability": "nonpayable",
      "type": "function"
    },
    {
      "inputs": [
        {
          "internalType": "bytes4",
          "name": "interfaceId",
          "type": "bytes4"
        }
      ],
      "name": "supportsInterface",
      "outputs": [
        {
          "internalType": "bool",
          "name": "",
          "type": "bool"
        }
      ],
      "stateMutability": "view",
      "type": "function"
    },
    {
      "inputs": [],
      "name": "symbol",
      "outputs": [
        {
          "internalType": "string",
          "name": "",
          "type": "string"
        }
      ],
      "stateMutability": "view",
      "type": "function"
    },
    {
      "inputs": [
        {
          "internalType": "uint256",
          "name": "_tokenId",
          "type": "uint256"
        }
      ],
      "name": "tokenURI",
      "outputs": [
        {
          "internalType": "string",
          "name": "",
          "type": "string"
        }
      ],
      "stateMutability": "view",
      "type": "function"
    },
    {
      "inputs": [],
      "name": "totalSupply",
      "outputs": [
        {
          "internalType": "uint256",
          "name": "",
          "type": "uint256"
        }
      ],
      "stateMutability": "view",
      "type": "function"
    },
    {
      "inputs": [
        {
          "internalType": "address",
          "name": "from",
          "type": "address"
        },
        {
          "internalType": "address",
          "name": "to",
          "type": "address"
        },
        {
          "internalType": "uint256",
          "name": "tokenId",
          "type": "uint256"
        }
      ],
      "name": "transferFrom",
      "outputs": [],
      "stateMutability": "nonpayable",
      "type": "function"
    },
    {
      "inputs": [
        {
          "internalType": "address",
          "name": "newOwner",
          "type": "address"
        }
      ],
      "name": "transferOwnership",
      "outputs": [],
      "stateMutability": "nonpayable",
      "type": "function"
    },
    {
      "inputs": [],
      "name": "uriPrefix",
      "outputs": [
        {
          "internalType": "string",
          "name": "",
          "type": "string"
        }
      ],
      "stateMutability": "view",
      "type": "function"
    },
    {
      "inputs": [],
      "name": "uriSuffix",
      "outputs": [
        {
          "internalType": "string",
          "name": "",
          "type": "string"
        }
      ],
      "stateMutability": "view",
      "type": "function"
    },
    {
      "inputs": [
        {
          "internalType": "address",
          "name": "_owner",
          "type": "address"
        }
      ],
      "name": "walletOfOwner",
      "outputs": [
        {
          "internalType": "uint256[]",
          "name": "",
          "type": "uint256[]"
        }
      ],
      "stateMutability": "view",
      "type": "function"
    }
  ],
  "bytecode": "0x608060405260405180602001604052806000815250600890805190602001906200002b929190620008ab565b506040518060400160405280600581526020017f2e6a736f6e0000000000000000000000000000000000000000000000000000008152506009908051906020019062000079929190620008ab565b5060405180602001604052806000815250600a9080519060200190620000a1929190620008ab565b506000600b556014600c556001600d556001600e60006101000a81548160ff0219169083151502179055506000600e60016101000a81548160ff021916908315150217905550348015620000f457600080fd5b506040516200503b3803806200503b83398181016040528101906200011a919062000a10565b8282816000908051906020019062000134929190620008ab565b5080600190805190602001906200014d929190620008ab565b50505062000170620001646200019d60201b60201c565b620001a560201b60201c565b62000181816200026b60201b60201c565b620001943360016200031660201b60201c565b50505062001051565b600033905090565b6000600660009054906101000a900473ffffffffffffffffffffffffffffffffffffffff16905081600660006101000a81548173ffffffffffffffffffffffffffffffffffffffff021916908373ffffffffffffffffffffffffffffffffffffffff1602179055508173ffffffffffffffffffffffffffffffffffffffff168173ffffffffffffffffffffffffffffffffffffffff167f8be0079c531659141344cd1fd0a4f28419497f9722a3daafe3b4186f6b6457e060405160405180910390a35050565b6200027b6200019d60201b60201c565b73ffffffffffffffffffffffffffffffffffffffff16620002a16200037c60201b60201c565b73ffffffffffffffffffffffffffffffffffffffff1614620002fa576040517f08c379a0000000000000000000000000000000000000000000000000000000008152600401620002f19062000c6a565b60405180910390fd5b806008908051906020019062000312929190620008ab565b5050565b60005b818110156200037757620003396007620003a660201b62001b101760201c565b6200036183620003556007620003bc60201b62001b261760201c565b620003ca60201b60201c565b80806200036e9062000e81565b91505062000319565b505050565b6000600660009054906101000a900473ffffffffffffffffffffffffffffffffffffffff16905090565b6001816000016000828254019250508190555050565b600081600001549050919050565b620003ec828260405180602001604052806000815250620003f060201b60201c565b5050565b6200040283836200045e60201b60201c565b6200041760008484846200065860201b60201c565b62000459576040517f08c379a0000000000000000000000000000000000000000000000000000000008152600401620004509062000c04565b60405180910390fd5b505050565b600073ffffffffffffffffffffffffffffffffffffffff168273ffffffffffffffffffffffffffffffffffffffff161415620004d1576040517f08c379a0000000000000000000000000000000000000000000000000000000008152600401620004c89062000c48565b60405180910390fd5b620004e2816200081260201b60201c565b1562000525576040517f08c379a00000000000000000000000000000000000000000000000000000000081526004016200051c9062000c26565b60405180910390fd5b62000539600083836200087e60201b60201c565b6001600360008473ffffffffffffffffffffffffffffffffffffffff1673ffffffffffffffffffffffffffffffffffffffff16815260200190815260200160002060008282546200058b919062000d18565b92505081905550816002600083815260200190815260200160002060006101000a81548173ffffffffffffffffffffffffffffffffffffffff021916908373ffffffffffffffffffffffffffffffffffffffff160217905550808273ffffffffffffffffffffffffffffffffffffffff16600073ffffffffffffffffffffffffffffffffffffffff167fddf252ad1be2c89b69c2b068fc378daa952ba7f163c4a11628f55a4df523b3ef60405160405180910390a462000654600083836200088360201b60201c565b5050565b6000620006868473ffffffffffffffffffffffffffffffffffffffff166200088860201b62001b341760201c565b1562000805578373ffffffffffffffffffffffffffffffffffffffff1663150b7a02620006b86200019d60201b60201c565b8786866040518563ffffffff1660e01b8152600401620006dc949392919062000bb0565b602060405180830381600087803b158015620006f757600080fd5b505af19250505080156200072b57506040513d601f19601f82011682018060405250810190620007289190620009e4565b60015b620007b4573d80600081146200075e576040519150601f19603f3d011682016040523d82523d6000602084013e62000763565b606091505b50600081511415620007ac576040517f08c379a0000000000000000000000000000000000000000000000000000000008152600401620007a39062000c04565b60405180910390fd5b805181602001fd5b63150b7a0260e01b7bffffffffffffffffffffffffffffffffffffffffffffffffffffffff1916817bffffffffffffffffffffffffffffffffffffffffffffffffffffffff1916149150506200080a565b600190505b949350505050565b60008073ffffffffffffffffffffffffffffffffffffffff166002600084815260200190815260200160002060009054906101000a900473ffffffffffffffffffffffffffffffffffffffff1673ffffffffffffffffffffffffffffffffffffffff1614159050919050565b505050565b505050565b6000808273ffffffffffffffffffffffffffffffffffffffff163b119050919050565b828054620008b99062000e15565b90600052602060002090601f016020900481019282620008dd576000855562000929565b82601f10620008f857805160ff191683800117855562000929565b8280016001018555821562000929579182015b82811115620009285782518255916020019190600101906200090b565b5b5090506200093891906200093c565b5090565b5b80821115620009575760008160009055506001016200093d565b5090565b6000620009726200096c8462000cb5565b62000c8c565b9050828152602081018484840111156200098b57600080fd5b6200099884828562000ddf565b509392505050565b600081519050620009b18162001037565b92915050565b600082601f830112620009c957600080fd5b8151620009db8482602086016200095b565b91505092915050565b600060208284031215620009f757600080fd5b600062000a0784828501620009a0565b91505092915050565b60008060006060848603121562000a2657600080fd5b600084015167ffffffffffffffff81111562000a4157600080fd5b62000a4f86828701620009b7565b935050602084015167ffffffffffffffff81111562000a6d57600080fd5b62000a7b86828701620009b7565b925050604084015167ffffffffffffffff81111562000a9957600080fd5b62000aa786828701620009b7565b9150509250925092565b62000abc8162000d75565b82525050565b600062000acf8262000ceb565b62000adb818562000cf6565b935062000aed81856020860162000ddf565b62000af88162000f5c565b840191505092915050565b600062000b1260328362000d07565b915062000b1f8262000f6d565b604082019050919050565b600062000b39601c8362000d07565b915062000b468262000fbc565b602082019050919050565b600062000b6060208362000d07565b915062000b6d8262000fe5565b602082019050919050565b600062000b8760208362000d07565b915062000b94826200100e565b602082019050919050565b62000baa8162000dd5565b82525050565b600060808201905062000bc7600083018762000ab1565b62000bd6602083018662000ab1565b62000be5604083018562000b9f565b818103606083015262000bf9818462000ac2565b905095945050505050565b6000602082019050818103600083015262000c1f8162000b03565b9050919050565b6000602082019050818103600083015262000c418162000b2a565b9050919050565b6000602082019050818103600083015262000c638162000b51565b9050919050565b6000602082019050818103600083015262000c858162000b78565b9050919050565b600062000c9862000cab565b905062000ca6828262000e4b565b919050565b6000604051905090565b600067ffffffffffffffff82111562000cd35762000cd262000f2d565b5b62000cde8262000f5c565b9050602081019050919050565b600081519050919050565b600082825260208201905092915050565b600082825260208201905092915050565b600062000d258262000dd5565b915062000d328362000dd5565b9250827fffffffffffffffffffffffffffffffffffffffffffffffffffffffffffffffff0382111562000d6a5762000d6962000ecf565b5b828201905092915050565b600062000d828262000db5565b9050919050565b60007fffffffff0000000000000000000000000000000000000000000000000000000082169050919050565b600073ffffffffffffffffffffffffffffffffffffffff82169050919050565b6000819050919050565b60005b8381101562000dff57808201518184015260208101905062000de2565b8381111562000e0f576000848401525b50505050565b6000600282049050600182168062000e2e57607f821691505b6020821081141562000e455762000e4462000efe565b5b50919050565b62000e568262000f5c565b810181811067ffffffffffffffff8211171562000e785762000e7762000f2d565b5b80604052505050565b600062000e8e8262000dd5565b91507fffffffffffffffffffffffffffffffffffffffffffffffffffffffffffffffff82141562000ec45762000ec362000ecf565b5b600182019050919050565b7f4e487b7100000000000000000000000000000000000000000000000000000000600052601160045260246000fd5b7f4e487b7100000000000000000000000000000000000000000000000000000000600052602260045260246000fd5b7f4e487b7100000000000000000000000000000000000000000000000000000000600052604160045260246000fd5b6000601f19601f8301169050919050565b7f4552433732313a207472616e7366657220746f206e6f6e20455243373231526560008201527f63656976657220696d706c656d656e7465720000000000000000000000000000602082015250565b7f4552433732313a20746f6b656e20616c7265616479206d696e74656400000000600082015250565b7f4552433732313a206d696e7420746f20746865207a65726f2061646472657373600082015250565b7f4f776e61626c653a2063616c6c6572206973206e6f7420746865206f776e6572600082015250565b620010428162000d89565b81146200104e57600080fd5b50565b613fda80620010616000396000f3fe60806040526004361061020f5760003560e01c806370a0823111610118578063b071401b116100a0578063d5abeb011161006f578063d5abeb011461077c578063e0a80853146107a7578063e985e9c5146107d0578063f254933d1461080d578063f2fde38b146108365761020f565b8063b071401b146106c2578063b88d4fde146106eb578063bd3e19d414610714578063c87b56dd1461073f5761020f565b806394354fd0116100e757806394354fd0146105fc57806395d89b4114610627578063a0712d6814610652578063a22cb4651461066e578063a45ba8e7146106975761020f565b806370a0823114610554578063715018a6146105915780637ec4a659146105a85780638da5cb5b146105d15761020f565b806342842e0e1161019b578063518302271161016a578063518302271461046b5780635503a0e8146104965780635c975abb146104c157806362b99ad4146104ec5780636352211e146105175761020f565b806342842e0e146103b3578063438b6300146103dc57806344a0d68a146104195780634fdd43cb146104425761020f565b806313faede6116101e257806313faede6146102e257806316ba10e01461030d57806316c38b3c1461033657806318160ddd1461035f57806323b872dd1461038a5761020f565b806301ffc9a71461021457806306fdde0314610251578063081812fc1461027c578063095ea7b3146102b9575b600080fd5b34801561022057600080fd5b5061023b60048036038101906102369190612ce1565b61085f565b60405161024891906132e7565b60405180910390f35b34801561025d57600080fd5b50610266610941565b6040516102739190613302565b60405180910390f35b34801561028857600080fd5b506102a3600480360381019061029e9190612d74565b6109d3565b6040516102b0919061325e565b60405180910390f35b3480156102c557600080fd5b506102e060048036038101906102db9190612c7c565b610a58565b005b3480156102ee57600080fd5b506102f7610b70565b60405161030491906135a4565b60405180910390f35b34801561031957600080fd5b50610334600480360381019061032f9190612d33565b610b76565b005b34801561034257600080fd5b5061035d60048036038101906103589190612cb8565b610c0c565b005b34801561036b57600080fd5b50610374610ca5565b60405161038191906135a4565b60405180910390f35b34801561039657600080fd5b506103b160048036038101906103ac9190612b76565b610cb6565b005b3480156103bf57600080fd5b506103da60048036038101906103d59190612b76565b610d16565b005b3480156103e857600080fd5b5061040360048036038101906103fe9190612b11565b610d36565b60405161041091906132c5565b60405180910390f35b34801561042557600080fd5b50610440600480360381019061043b9190612d74565b610e8d565b005b34801561044e57600080fd5b5061046960048036038101906104649190612d33565b610f13565b005b34801561047757600080fd5b50610480610fa9565b60405161048d91906132e7565b60405180910390f35b3480156104a257600080fd5b506104ab610fbc565b6040516104b89190613302565b60405180910390f35b3480156104cd57600080fd5b506104d661104a565b6040516104e391906132e7565b60405180910390f35b3480156104f857600080fd5b5061050161105d565b60405161050e9190613302565b60405180910390f35b34801561052357600080fd5b5061053e60048036038101906105399190612d74565b6110eb565b60405161054b919061325e565b60405180910390f35b34801561056057600080fd5b5061057b60048036038101906105769190612b11565b61119d565b60405161058891906135a4565b60405180910390f35b34801561059d57600080fd5b506105a6611255565b005b3480156105b457600080fd5b506105cf60048036038101906105ca9190612d33565b6112dd565b005b3480156105dd57600080fd5b506105e6611373565b6040516105f3919061325e565b60405180910390f35b34801561060857600080fd5b5061061161139d565b60405161061e91906135a4565b60405180910390f35b34801561063357600080fd5b5061063c6113a3565b6040516106499190613302565b60405180910390f35b61066c60048036038101906106679190612d74565b611435565b005b34801561067a57600080fd5b5061069560048036038101906106909190612c40565b61158e565b005b3480156106a357600080fd5b506106ac6115a4565b6040516106b99190613302565b60405180910390f35b3480156106ce57600080fd5b506106e960048036038101906106e49190612d74565b611632565b005b3480156106f757600080fd5b50610712600480360381019061070d9190612bc5565b6116b8565b005b34801561072057600080fd5b5061072961171a565b60405161073691906135a4565b60405180910390f35b34801561074b57600080fd5b5061076660048036038101906107619190612d74565b611724565b6040516107739190613302565b60405180910390f35b34801561078857600080fd5b506107916117af565b60405161079e91906135a4565b60405180910390f35b3480156107b357600080fd5b506107ce60048036038101906107c99190612cb8565b6117b5565b005b3480156107dc57600080fd5b506107f760048036038101906107f29190612b3a565b61184e565b60405161080491906132e7565b60405180910390f35b34801561081957600080fd5b50610834600480360381019061082f9190612c7c565b6118e2565b005b34801561084257600080fd5b5061085d60048036038101906108589190612b11565b611a18565b005b60007f80ac58cd000000000000000000000000000000000000000000000000000000007bffffffffffffffffffffffffffffffffffffffffffffffffffffffff1916827bffffffffffffffffffffffffffffffffffffffffffffffffffffffff1916148061092a57507f5b5e139f000000000000000000000000000000000000000000000000000000007bffffffffffffffffffffffffffffffffffffffffffffffffffffffff1916827bffffffffffffffffffffffffffffffffffffffffffffffffffffffff1916145b8061093a575061093982611b57565b5b9050919050565b606060008054610950906138a2565b80601f016020809104026020016040519081016040528092919081815260200182805461097c906138a2565b80156109c95780601f1061099e576101008083540402835291602001916109c9565b820191906000526020600020905b8154815290600101906020018083116109ac57829003601f168201915b5050505050905090565b60006109de82611bc1565b610a1d576040517f08c379a0000000000000000000000000000000000000000000000000000000008152600401610a14906134a4565b60405180910390fd5b6004600083815260200190815260200160002060009054906101000a900473ffffffffffffffffffffffffffffffffffffffff169050919050565b6000610a63826110eb565b90508073ffffffffffffffffffffffffffffffffffffffff168373ffffffffffffffffffffffffffffffffffffffff161415610ad4576040517f08c379a0000000000000000000000000000000000000000000000000000000008152600401610acb90613524565b60405180910390fd5b8073ffffffffffffffffffffffffffffffffffffffff16610af3611c2d565b73ffffffffffffffffffffffffffffffffffffffff161480610b225750610b2181610b1c611c2d565b61184e565b5b610b61576040517f08c379a0000000000000000000000000000000000000000000000000000000008152600401610b5890613424565b60405180910390fd5b610b6b8383611c35565b505050565b600b5481565b610b7e611c2d565b73ffffffffffffffffffffffffffffffffffffffff16610b9c611373565b73ffffffffffffffffffffffffffffffffffffffff1614610bf2576040517f08c379a0000000000000000000000000000000000000000000000000000000008152600401610be9906134c4565b60405180910390fd5b8060099080519060200190610c08929190612935565b5050565b610c14611c2d565b73ffffffffffffffffffffffffffffffffffffffff16610c32611373565b73ffffffffffffffffffffffffffffffffffffffff1614610c88576040517f08c379a0000000000000000000000000000000000000000000000000000000008152600401610c7f906134c4565b60405180910390fd5b80600e60006101000a81548160ff02191690831515021790555050565b6000610cb16007611b26565b905090565b610cc7610cc1611c2d565b82611cee565b610d06576040517f08c379a0000000000000000000000000000000000000000000000000000000008152600401610cfd90613564565b60405180910390fd5b610d11838383611dcc565b505050565b610d31838383604051806020016040528060008152506116b8565b505050565b60606000610d438361119d565b905060008167ffffffffffffffff811115610d87577f4e487b7100000000000000000000000000000000000000000000000000000000600052604160045260246000fd5b604051908082528060200260200182016040528015610db55781602001602082028036833780820191505090505b50905060006001905060005b8381108015610dd25750600c548211155b15610e81576000610de2836110eb565b90508673ffffffffffffffffffffffffffffffffffffffff168173ffffffffffffffffffffffffffffffffffffffff161415610e6d5782848381518110610e52577f4e487b7100000000000000000000000000000000000000000000000000000000600052603260045260246000fd5b6020026020010181815250508180610e6990613905565b9250505b8280610e7890613905565b93505050610dc1565b82945050505050919050565b610e95611c2d565b73ffffffffffffffffffffffffffffffffffffffff16610eb3611373565b73ffffffffffffffffffffffffffffffffffffffff1614610f09576040517f08c379a0000000000000000000000000000000000000000000000000000000008152600401610f00906134c4565b60405180910390fd5b80600b8190555050565b610f1b611c2d565b73ffffffffffffffffffffffffffffffffffffffff16610f39611373565b73ffffffffffffffffffffffffffffffffffffffff1614610f8f576040517f08c379a0000000000000000000000000000000000000000000000000000000008152600401610f86906134c4565b60405180910390fd5b80600a9080519060200190610fa5929190612935565b5050565b600e60019054906101000a900460ff1681565b60098054610fc9906138a2565b80601f0160208091040260200160405190810160405280929190818152602001828054610ff5906138a2565b80156110425780601f1061101757610100808354040283529160200191611042565b820191906000526020600020905b81548152906001019060200180831161102557829003601f168201915b505050505081565b600e60009054906101000a900460ff1681565b6008805461106a906138a2565b80601f0160208091040260200160405190810160405280929190818152602001828054611096906138a2565b80156110e35780601f106110b8576101008083540402835291602001916110e3565b820191906000526020600020905b8154815290600101906020018083116110c657829003601f168201915b505050505081565b6000806002600084815260200190815260200160002060009054906101000a900473ffffffffffffffffffffffffffffffffffffffff169050600073ffffffffffffffffffffffffffffffffffffffff168173ffffffffffffffffffffffffffffffffffffffff161415611194576040517f08c379a000000000000000000000000000000000000000000000000000000000815260040161118b90613464565b60405180910390fd5b80915050919050565b60008073ffffffffffffffffffffffffffffffffffffffff168273ffffffffffffffffffffffffffffffffffffffff16141561120e576040517f08c379a000000000000000000000000000000000000000000000000000000000815260040161120590613444565b60405180910390fd5b600360008373ffffffffffffffffffffffffffffffffffffffff1673ffffffffffffffffffffffffffffffffffffffff168152602001908152602001600020549050919050565b61125d611c2d565b73ffffffffffffffffffffffffffffffffffffffff1661127b611373565b73ffffffffffffffffffffffffffffffffffffffff16146112d1576040517f08c379a00000000000000000000000000000000000000000000000000000000081526004016112c8906134c4565b60405180910390fd5b6112db6000612033565b565b6112e5611c2d565b73ffffffffffffffffffffffffffffffffffffffff16611303611373565b73ffffffffffffffffffffffffffffffffffffffff1614611359576040517f08c379a0000000000000000000000000000000000000000000000000000000008152600401611350906134c4565b60405180910390fd5b806008908051906020019061136f929190612935565b5050565b6000600660009054906101000a900473ffffffffffffffffffffffffffffffffffffffff16905090565b600d5481565b6060600180546113b2906138a2565b80601f01602080910402602001604051908101604052809291908181526020018280546113de906138a2565b801561142b5780601f106114005761010080835404028352916020019161142b565b820191906000526020600020905b81548152906001019060200180831161140e57829003601f168201915b5050505050905090565b806000811180156114485750600d548111155b611487576040517f08c379a000000000000000000000000000000000000000000000000000000000815260040161147e906133a4565b60405180910390fd5b600c54816114956007611b26565b61149f91906136d7565b11156114e0576040517f08c379a00000000000000000000000000000000000000000000000000000000081526004016114d790613544565b60405180910390fd5b600e60009054906101000a900460ff1615611530576040517f08c379a0000000000000000000000000000000000000000000000000000000008152600401611527906134e4565b60405180910390fd5b81600b5461153e919061375e565b341015611580576040517f08c379a000000000000000000000000000000000000000000000000000000000815260040161157790613584565b60405180910390fd5b61158a33836120f9565b5050565b6115a0611599611c2d565b8383612139565b5050565b600a80546115b1906138a2565b80601f01602080910402602001604051908101604052809291908181526020018280546115dd906138a2565b801561162a5780601f106115ff5761010080835404028352916020019161162a565b820191906000526020600020905b81548152906001019060200180831161160d57829003601f168201915b505050505081565b61163a611c2d565b73ffffffffffffffffffffffffffffffffffffffff16611658611373565b73ffffffffffffffffffffffffffffffffffffffff16146116ae576040517f08c379a00000000000000000000000000000000000000000000000000000000081526004016116a5906134c4565b60405180910390fd5b80600d8190555050565b6116c96116c3611c2d565b83611cee565b611708576040517f08c379a00000000000000000000000000000000000000000000000000000000081526004016116ff90613564565b60405180910390fd5b611714848484846122a6565b50505050565b6000600b54905090565b606061172f82611bc1565b61176e576040517f08c379a000000000000000000000000000000000000000000000000000000000815260040161176590613504565b60405180910390fd5b6000611778612302565b90508061178484612394565b60096040516020016117989392919061322d565b604051602081830303815290604052915050919050565b600c5481565b6117bd611c2d565b73ffffffffffffffffffffffffffffffffffffffff166117db611373565b73ffffffffffffffffffffffffffffffffffffffff1614611831576040517f08c379a0000000000000000000000000000000000000000000000000000000008152600401611828906134c4565b60405180910390fd5b80600e60016101000a81548160ff02191690831515021790555050565b6000600560008473ffffffffffffffffffffffffffffffffffffffff1673ffffffffffffffffffffffffffffffffffffffff16815260200190815260200160002060008373ffffffffffffffffffffffffffffffffffffffff1673ffffffffffffffffffffffffffffffffffffffff16815260200190815260200160002060009054906101000a900460ff16905092915050565b806000811180156118f55750600d548111155b611934576040517f08c379a000000000000000000000000000000000000000000000000000000000815260040161192b906133a4565b60405180910390fd5b600c54816119426007611b26565b61194c91906136d7565b111561198d576040517f08c379a000000000000000000000000000000000000000000000000000000000815260040161198490613544565b60405180910390fd5b611995611c2d565b73ffffffffffffffffffffffffffffffffffffffff166119b3611373565b73ffffffffffffffffffffffffffffffffffffffff1614611a09576040517f08c379a0000000000000000000000000000000000000000000000000000000008152600401611a00906134c4565b60405180910390fd5b611a1383836120f9565b505050565b611a20611c2d565b73ffffffffffffffffffffffffffffffffffffffff16611a3e611373565b73ffffffffffffffffffffffffffffffffffffffff1614611a94576040517f08c379a0000000000000000000000000000000000000000000000000000000008152600401611a8b906134c4565b60405180910390fd5b600073ffffffffffffffffffffffffffffffffffffffff168173ffffffffffffffffffffffffffffffffffffffff161415611b04576040517f08c379a0000000000000000000000000000000000000000000000000000000008152600401611afb90613344565b60405180910390fd5b611b0d81612033565b50565b6001816000016000828254019250508190555050565b600081600001549050919050565b6000808273ffffffffffffffffffffffffffffffffffffffff163b119050919050565b60007f01ffc9a7000000000000000000000000000000000000000000000000000000007bffffffffffffffffffffffffffffffffffffffffffffffffffffffff1916827bffffffffffffffffffffffffffffffffffffffffffffffffffffffff1916149050919050565b60008073ffffffffffffffffffffffffffffffffffffffff166002600084815260200190815260200160002060009054906101000a900473ffffffffffffffffffffffffffffffffffffffff1673ffffffffffffffffffffffffffffffffffffffff1614159050919050565b600033905090565b816004600083815260200190815260200160002060006101000a81548173ffffffffffffffffffffffffffffffffffffffff021916908373ffffffffffffffffffffffffffffffffffffffff160217905550808273ffffffffffffffffffffffffffffffffffffffff16611ca8836110eb565b73ffffffffffffffffffffffffffffffffffffffff167f8c5be1e5ebec7d5bd14f71427d1e84f3dd0314c0f7b2291e5b200ac8c7c3b92560405160405180910390a45050565b6000611cf982611bc1565b611d38576040517f08c379a0000000000000000000000000000000000000000000000000000000008152600401611d2f90613404565b60405180910390fd5b6000611d43836110eb565b90508073ffffffffffffffffffffffffffffffffffffffff168473ffffffffffffffffffffffffffffffffffffffff161480611db257508373ffffffffffffffffffffffffffffffffffffffff16611d9a846109d3565b73ffffffffffffffffffffffffffffffffffffffff16145b80611dc35750611dc2818561184e565b5b91505092915050565b8273ffffffffffffffffffffffffffffffffffffffff16611dec826110eb565b73ffffffffffffffffffffffffffffffffffffffff1614611e42576040517f08c379a0000000000000000000000000000000000000000000000000000000008152600401611e3990613364565b60405180910390fd5b600073ffffffffffffffffffffffffffffffffffffffff168273ffffffffffffffffffffffffffffffffffffffff161415611eb2576040517f08c379a0000000000000000000000000000000000000000000000000000000008152600401611ea9906133c4565b60405180910390fd5b611ebd838383612541565b611ec8600082611c35565b6001600360008573ffffffffffffffffffffffffffffffffffffffff1673ffffffffffffffffffffffffffffffffffffffff1681526020019081526020016000206000828254611f1891906137b8565b925050819055506001600360008473ffffffffffffffffffffffffffffffffffffffff1673ffffffffffffffffffffffffffffffffffffffff1681526020019081526020016000206000828254611f6f91906136d7565b92505081905550816002600083815260200190815260200160002060006101000a81548173ffffffffffffffffffffffffffffffffffffffff021916908373ffffffffffffffffffffffffffffffffffffffff160217905550808273ffffffffffffffffffffffffffffffffffffffff168473ffffffffffffffffffffffffffffffffffffffff167fddf252ad1be2c89b69c2b068fc378daa952ba7f163c4a11628f55a4df523b3ef60405160405180910390a461202e838383612546565b505050565b6000600660009054906101000a900473ffffffffffffffffffffffffffffffffffffffff16905081600660006101000a81548173ffffffffffffffffffffffffffffffffffffffff021916908373ffffffffffffffffffffffffffffffffffffffff1602179055508173ffffffffffffffffffffffffffffffffffffffff168173ffffffffffffffffffffffffffffffffffffffff167f8be0079c531659141344cd1fd0a4f28419497f9722a3daafe3b4186f6b6457e060405160405180910390a35050565b60005b818110156121345761210e6007611b10565b6121218361211c6007611b26565b61254b565b808061212c90613905565b9150506120fc565b505050565b8173ffffffffffffffffffffffffffffffffffffffff168373ffffffffffffffffffffffffffffffffffffffff1614156121a8576040517f08c379a000000000000000000000000000000000000000000000000000000000815260040161219f906133e4565b60405180910390fd5b80600560008573ffffffffffffffffffffffffffffffffffffffff1673ffffffffffffffffffffffffffffffffffffffff16815260200190815260200160002060008473ffffffffffffffffffffffffffffffffffffffff1673ffffffffffffffffffffffffffffffffffffffff16815260200190815260200160002060006101000a81548160ff0219169083151502179055508173ffffffffffffffffffffffffffffffffffffffff168373ffffffffffffffffffffffffffffffffffffffff167f17307eab39ab6107e8899845ad3d59bd9653f200f220920489ca2b5937696c318360405161229991906132e7565b60405180910390a3505050565b6122b1848484611dcc565b6122bd84848484612569565b6122fc576040517f08c379a00000000000000000000000000000000000000000000000000000000081526004016122f390613324565b60405180910390fd5b50505050565b606060088054612311906138a2565b80601f016020809104026020016040519081016040528092919081815260200182805461233d906138a2565b801561238a5780601f1061235f5761010080835404028352916020019161238a565b820191906000526020600020905b81548152906001019060200180831161236d57829003601f168201915b5050505050905090565b606060008214156123dc576040518060400160405280600181526020017f3000000000000000000000000000000000000000000000000000000000000000815250905061253c565b600082905060005b6000821461240e5780806123f790613905565b915050600a82612407919061372d565b91506123e4565b60008167ffffffffffffffff811115612450577f4e487b7100000000000000000000000000000000000000000000000000000000600052604160045260246000fd5b6040519080825280601f01601f1916602001820160405280156124825781602001600182028036833780820191505090505b5090505b600085146125355760018261249b91906137b8565b9150600a856124aa919061394e565b60306124b691906136d7565b60f81b8183815181106124f2577f4e487b7100000000000000000000000000000000000000000000000000000000600052603260045260246000fd5b60200101907effffffffffffffffffffffffffffffffffffffffffffffffffffffffffffff1916908160001a905350600a8561252e919061372d565b9450612486565b8093505050505b919050565b505050565b505050565b612565828260405180602001604052806000815250612700565b5050565b600061258a8473ffffffffffffffffffffffffffffffffffffffff16611b34565b156126f3578373ffffffffffffffffffffffffffffffffffffffff1663150b7a026125b3611c2d565b8786866040518563ffffffff1660e01b81526004016125d59493929190613279565b602060405180830381600087803b1580156125ef57600080fd5b505af192505050801561262057506040513d601f19601f8201168201806040525081019061261d9190612d0a565b60015b6126a3573d8060008114612650576040519150601f19603f3d011682016040523d82523d6000602084013e612655565b606091505b5060008151141561269b576040517f08c379a000000000000000000000000000000000000000000000000000000000815260040161269290613324565b60405180910390fd5b805181602001fd5b63150b7a0260e01b7bffffffffffffffffffffffffffffffffffffffffffffffffffffffff1916817bffffffffffffffffffffffffffffffffffffffffffffffffffffffff1916149150506126f8565b600190505b949350505050565b61270a838361275b565b6127176000848484612569565b612756576040517f08c379a000000000000000000000000000000000000000000000000000000000815260040161274d90613324565b60405180910390fd5b505050565b600073ffffffffffffffffffffffffffffffffffffffff168273ffffffffffffffffffffffffffffffffffffffff1614156127cb576040517f08c379a00000000000000000000000000000000000000000000000000000000081526004016127c290613484565b60405180910390fd5b6127d481611bc1565b15612814576040517f08c379a000000000000000000000000000000000000000000000000000000000815260040161280b90613384565b60405180910390fd5b61282060008383612541565b6001600360008473ffffffffffffffffffffffffffffffffffffffff1673ffffffffffffffffffffffffffffffffffffffff168152602001908152602001600020600082825461287091906136d7565b92505081905550816002600083815260200190815260200160002060006101000a81548173ffffffffffffffffffffffffffffffffffffffff021916908373ffffffffffffffffffffffffffffffffffffffff160217905550808273ffffffffffffffffffffffffffffffffffffffff16600073ffffffffffffffffffffffffffffffffffffffff167fddf252ad1be2c89b69c2b068fc378daa952ba7f163c4a11628f55a4df523b3ef60405160405180910390a461293160008383612546565b5050565b828054612941906138a2565b90600052602060002090601f01602090048101928261296357600085556129aa565b82601f1061297c57805160ff19168380011785556129aa565b828001600101855582156129aa579182015b828111156129a957825182559160200191906001019061298e565b5b5090506129b791906129bb565b5090565b5b808211156129d45760008160009055506001016129bc565b5090565b60006129eb6129e6846135e4565b6135bf565b905082815260208101848484011115612a0357600080fd5b612a0e848285613860565b509392505050565b6000612a29612a2484613615565b6135bf565b905082815260208101848484011115612a4157600080fd5b612a4c848285613860565b509392505050565b600081359050612a6381613f48565b92915050565b600081359050612a7881613f5f565b92915050565b600081359050612a8d81613f76565b92915050565b600081519050612aa281613f76565b92915050565b600082601f830112612ab957600080fd5b8135612ac98482602086016129d8565b91505092915050565b600082601f830112612ae357600080fd5b8135612af3848260208601612a16565b91505092915050565b600081359050612b0b81613f8d565b92915050565b600060208284031215612b2357600080fd5b6000612b3184828501612a54565b91505092915050565b60008060408385031215612b4d57600080fd5b6000612b5b85828601612a54565b9250506020612b6c85828601612a54565b9150509250929050565b600080600060608486031215612b8b57600080fd5b6000612b9986828701612a54565b9350506020612baa86828701612a54565b9250506040612bbb86828701612afc565b9150509250925092565b60008060008060808587031215612bdb57600080fd5b6000612be987828801612a54565b9450506020612bfa87828801612a54565b9350506040612c0b87828801612afc565b925050606085013567ffffffffffffffff811115612c2857600080fd5b612c3487828801612aa8565b91505092959194509250565b60008060408385031215612c5357600080fd5b6000612c6185828601612a54565b9250506020612c7285828601612a69565b9150509250929050565b60008060408385031215612c8f57600080fd5b6000612c9d85828601612a54565b9250506020612cae85828601612afc565b9150509250929050565b600060208284031215612cca57600080fd5b6000612cd884828501612a69565b91505092915050565b600060208284031215612cf357600080fd5b6000612d0184828501612a7e565b91505092915050565b600060208284031215612d1c57600080fd5b6000612d2a84828501612a93565b91505092915050565b600060208284031215612d4557600080fd5b600082013567ffffffffffffffff811115612d5f57600080fd5b612d6b84828501612ad2565b91505092915050565b600060208284031215612d8657600080fd5b6000612d9484828501612afc565b91505092915050565b6000612da9838361320f565b60208301905092915050565b612dbe816137ec565b82525050565b6000612dcf8261366b565b612dd98185613699565b9350612de483613646565b8060005b83811015612e15578151612dfc8882612d9d565b9750612e078361368c565b925050600181019050612de8565b5085935050505092915050565b612e2b816137fe565b82525050565b6000612e3c82613676565b612e4681856136aa565b9350612e5681856020860161386f565b612e5f81613a3b565b840191505092915050565b6000612e7582613681565b612e7f81856136bb565b9350612e8f81856020860161386f565b612e9881613a3b565b840191505092915050565b6000612eae82613681565b612eb881856136cc565b9350612ec881856020860161386f565b80840191505092915050565b60008154612ee1816138a2565b612eeb81866136cc565b94506001821660008114612f065760018114612f1757612f4a565b60ff19831686528186019350612f4a565b612f2085613656565b60005b83811015612f4257815481890152600182019150602081019050612f23565b838801955050505b50505092915050565b6000612f606032836136bb565b9150612f6b82613a4c565b604082019050919050565b6000612f836026836136bb565b9150612f8e82613a9b565b604082019050919050565b6000612fa66025836136bb565b9150612fb182613aea565b604082019050919050565b6000612fc9601c836136bb565b9150612fd482613b39565b602082019050919050565b6000612fec6014836136bb565b9150612ff782613b62565b602082019050919050565b600061300f6024836136bb565b915061301a82613b8b565b604082019050919050565b60006130326019836136bb565b915061303d82613bda565b602082019050919050565b6000613055602c836136bb565b915061306082613c03565b604082019050919050565b60006130786038836136bb565b915061308382613c52565b604082019050919050565b600061309b602a836136bb565b91506130a682613ca1565b604082019050919050565b60006130be6029836136bb565b91506130c982613cf0565b604082019050919050565b60006130e16020836136bb565b91506130ec82613d3f565b602082019050919050565b6000613104602c836136bb565b915061310f82613d68565b604082019050919050565b60006131276020836136bb565b915061313282613db7565b602082019050919050565b600061314a6017836136bb565b915061315582613de0565b602082019050919050565b600061316d602f836136bb565b915061317882613e09565b604082019050919050565b60006131906021836136bb565b915061319b82613e58565b604082019050919050565b60006131b36014836136bb565b91506131be82613ea7565b602082019050919050565b60006131d66031836136bb565b91506131e182613ed0565b604082019050919050565b60006131f96013836136bb565b915061320482613f1f565b602082019050919050565b61321881613856565b82525050565b61322781613856565b82525050565b60006132398286612ea3565b91506132458285612ea3565b91506132518284612ed4565b9150819050949350505050565b60006020820190506132736000830184612db5565b92915050565b600060808201905061328e6000830187612db5565b61329b6020830186612db5565b6132a8604083018561321e565b81810360608301526132ba8184612e31565b905095945050505050565b600060208201905081810360008301526132df8184612dc4565b905092915050565b60006020820190506132fc6000830184612e22565b92915050565b6000602082019050818103600083015261331c8184612e6a565b905092915050565b6000602082019050818103600083015261333d81612f53565b9050919050565b6000602082019050818103600083015261335d81612f76565b9050919050565b6000602082019050818103600083015261337d81612f99565b9050919050565b6000602082019050818103600083015261339d81612fbc565b9050919050565b600060208201905081810360008301526133bd81612fdf565b9050919050565b600060208201905081810360008301526133dd81613002565b9050919050565b600060208201905081810360008301526133fd81613025565b9050919050565b6000602082019050818103600083015261341d81613048565b9050919050565b6000602082019050818103600083015261343d8161306b565b9050919050565b6000602082019050818103600083015261345d8161308e565b9050919050565b6000602082019050818103600083015261347d816130b1565b9050919050565b6000602082019050818103600083015261349d816130d4565b9050919050565b600060208201905081810360008301526134bd816130f7565b9050919050565b600060208201905081810360008301526134dd8161311a565b9050919050565b600060208201905081810360008301526134fd8161313d565b9050919050565b6000602082019050818103600083015261351d81613160565b9050919050565b6000602082019050818103600083015261353d81613183565b9050919050565b6000602082019050818103600083015261355d816131a6565b9050919050565b6000602082019050818103600083015261357d816131c9565b9050919050565b6000602082019050818103600083015261359d816131ec565b9050919050565b60006020820190506135b9600083018461321e565b92915050565b60006135c96135da565b90506135d582826138d4565b919050565b6000604051905090565b600067ffffffffffffffff8211156135ff576135fe613a0c565b5b61360882613a3b565b9050602081019050919050565b600067ffffffffffffffff8211156136305761362f613a0c565b5b61363982613a3b565b9050602081019050919050565b6000819050602082019050919050565b60008190508160005260206000209050919050565b600081519050919050565b600081519050919050565b600081519050919050565b6000602082019050919050565b600082825260208201905092915050565b600082825260208201905092915050565b600082825260208201905092915050565b600081905092915050565b60006136e282613856565b91506136ed83613856565b9250827fffffffffffffffffffffffffffffffffffffffffffffffffffffffffffffffff038211156137225761372161397f565b5b828201905092915050565b600061373882613856565b915061374383613856565b925082613753576137526139ae565b5b828204905092915050565b600061376982613856565b915061377483613856565b9250817fffffffffffffffffffffffffffffffffffffffffffffffffffffffffffffffff04831182151516156137ad576137ac61397f565b5b828202905092915050565b60006137c382613856565b91506137ce83613856565b9250828210156137e1576137e061397f565b5b828203905092915050565b60006137f782613836565b9050919050565b60008115159050919050565b60007fffffffff0000000000000000000000000000000000000000000000000000000082169050919050565b600073ffffffffffffffffffffffffffffffffffffffff82169050919050565b6000819050919050565b82818337600083830152505050565b60005b8381101561388d578082015181840152602081019050613872565b8381111561389c576000848401525b50505050565b600060028204905060018216806138ba57607f821691505b602082108114156138ce576138cd6139dd565b5b50919050565b6138dd82613a3b565b810181811067ffffffffffffffff821117156138fc576138fb613a0c565b5b80604052505050565b600061391082613856565b91507fffffffffffffffffffffffffffffffffffffffffffffffffffffffffffffffff8214156139435761394261397f565b5b600182019050919050565b600061395982613856565b915061396483613856565b925082613974576139736139ae565b5b828206905092915050565b7f4e487b7100000000000000000000000000000000000000000000000000000000600052601160045260246000fd5b7f4e487b7100000000000000000000000000000000000000000000000000000000600052601260045260246000fd5b7f4e487b7100000000000000000000000000000000000000000000000000000000600052602260045260246000fd5b7f4e487b7100000000000000000000000000000000000000000000000000000000600052604160045260246000fd5b6000601f19601f8301169050919050565b7f4552433732313a207472616e7366657220746f206e6f6e20455243373231526560008201527f63656976657220696d706c656d656e7465720000000000000000000000000000602082015250565b7f4f776e61626c653a206e6577206f776e657220697320746865207a65726f206160008201527f6464726573730000000000000000000000000000000000000000000000000000602082015250565b7f4552433732313a207472616e736665722066726f6d20696e636f72726563742060008201527f6f776e6572000000000000000000000000000000000000000000000000000000602082015250565b7f4552433732313a20746f6b656e20616c7265616479206d696e74656400000000600082015250565b7f496e76616c6964206d696e7420616d6f756e7421000000000000000000000000600082015250565b7f4552433732313a207472616e7366657220746f20746865207a65726f2061646460008201527f7265737300000000000000000000000000000000000000000000000000000000602082015250565b7f4552433732313a20617070726f766520746f2063616c6c657200000000000000600082015250565b7f4552433732313a206f70657261746f7220717565727920666f72206e6f6e657860008201527f697374656e7420746f6b656e0000000000000000000000000000000000000000602082015250565b7f4552433732313a20617070726f76652063616c6c6572206973206e6f74206f7760008201527f6e6572206e6f7220617070726f76656420666f7220616c6c0000000000000000602082015250565b7f4552433732313a2062616c616e636520717565727920666f7220746865207a6560008201527f726f206164647265737300000000000000000000000000000000000000000000602082015250565b7f4552433732313a206f776e657220717565727920666f72206e6f6e657869737460008201527f656e7420746f6b656e0000000000000000000000000000000000000000000000602082015250565b7f4552433732313a206d696e7420746f20746865207a65726f2061646472657373600082015250565b7f4552433732313a20617070726f76656420717565727920666f72206e6f6e657860008201527f697374656e7420746f6b656e0000000000000000000000000000000000000000602082015250565b7f4f776e61626c653a2063616c6c6572206973206e6f7420746865206f776e6572600082015250565b7f54686520636f6e74726163742069732070617573656421000000000000000000600082015250565b7f4552433732314d657461646174613a2055524920717565727920666f72206e6f60008201527f6e6578697374656e7420746f6b656e0000000000000000000000000000000000602082015250565b7f4552433732313a20617070726f76616c20746f2063757272656e74206f776e6560008201527f7200000000000000000000000000000000000000000000000000000000000000602082015250565b7f4d617820737570706c7920657863656564656421000000000000000000000000600082015250565b7f4552433732313a207472616e736665722063616c6c6572206973206e6f74206f60008201527f776e6572206e6f7220617070726f766564000000000000000000000000000000602082015250565b7f496e73756666696369656e742066756e64732100000000000000000000000000600082015250565b613f51816137ec565b8114613f5c57600080fd5b50565b613f68816137fe565b8114613f7357600080fd5b50565b613f7f8161380a565b8114613f8a57600080fd5b50565b613f9681613856565b8114613fa157600080fd5b5056fea2646970667358221220834707ba7125b140fd8ec5eff116f0016386c7609a5a3d8a2960384e3c7e7ab664736f6c63430008040033",
  "linkReferences": {},
  "deployedLinkReferences": {}
}